{
  "contractName": "MusicianManager",
  "abi": [
    {
      "inputs": [],
      "stateMutability": "nonpayable",
      "type": "constructor"
    },
    {
      "anonymous": false,
      "inputs": [
        {
          "components": [
            {
              "internalType": "string",
              "name": "_title",
              "type": "string"
            },
            {
              "internalType": "uint256",
              "name": "_duration",
              "type": "uint256"
            }
          ],
          "indexed": false,
          "internalType": "struct MusicianManager.Track[]",
          "name": "_tracks",
          "type": "tuple[]"
        }
      ],
      "name": "getTheTracks",
      "type": "event"
    },
    {
      "anonymous": false,
      "inputs": [
        {
          "indexed": false,
          "internalType": "string",
          "name": "_artistName",
          "type": "string"
        }
      ],
      "name": "musicianCreated",
      "type": "event"
    },
    {
      "anonymous": false,
      "inputs": [
        {
          "indexed": false,
          "internalType": "string",
          "name": "_artistName",
          "type": "string"
        },
        {
          "indexed": false,
          "internalType": "string",
          "name": "_title",
          "type": "string"
        }
      ],
      "name": "trackAdded",
      "type": "event"
    },
    {
      "inputs": [],
      "name": "owner",
      "outputs": [
        {
          "internalType": "address",
          "name": "",
          "type": "address"
        }
      ],
      "stateMutability": "view",
      "type": "function"
    },
    {
      "inputs": [],
      "name": "securityManager",
      "outputs": [
        {
          "internalType": "contract SecurityManager",
          "name": "",
          "type": "address"
        }
      ],
      "stateMutability": "view",
      "type": "function"
    },
    {
      "inputs": [
        {
          "internalType": "address",
          "name": "_musicianAddress",
          "type": "address"
        },
        {
          "internalType": "string",
          "name": "_artistName",
          "type": "string"
        }
      ],
      "name": "addMusician",
      "outputs": [],
      "stateMutability": "nonpayable",
      "type": "function"
    },
    {
      "inputs": [
        {
          "internalType": "address",
          "name": "_musicianAddress",
          "type": "address"
        },
        {
          "internalType": "string",
          "name": "_title",
          "type": "string"
        },
        {
          "internalType": "uint256",
          "name": "_duration",
          "type": "uint256"
        }
      ],
      "name": "addTrack",
      "outputs": [],
      "stateMutability": "nonpayable",
      "type": "function"
    },
    {
      "inputs": [
        {
          "internalType": "address",
          "name": "_musicianAddress",
          "type": "address"
        }
      ],
      "name": "getTracks",
      "outputs": [],
      "stateMutability": "nonpayable",
      "type": "function"
    }
  ],
  "bytecode": "0x608060405234801561001057600080fd5b50336000806101000a81548173ffffffffffffffffffffffffffffffffffffffff021916908373ffffffffffffffffffffffffffffffffffffffff16021790555060405161005d906100bf565b604051809103906000f080158015610079573d6000803e3d6000fd5b50600160006101000a81548173ffffffffffffffffffffffffffffffffffffffff021916908373ffffffffffffffffffffffffffffffffffffffff1602179055506100cc565b6101568061105683390190565b610f7b806100db6000396000f3fe608060405234801561001057600080fd5b50600436106100575760003560e01c80636bcc77821461005c5780637b061e38146100785780638da5cb5b14610094578063b14efb5f146100b2578063de675a6d146100ce575b600080fd5b610076600480360381019061007191906106c4565b6100ec565b005b610092600480360381019061008d9190610837565b610167565b005b61009c610318565b6040516100a991906108a2565b60405180910390f35b6100cc60048036038101906100c791906108f3565b61033c565b005b6100d6610589565b6040516100e391906109c1565b60405180910390f35b7f1c56b8acd78e4cf62b13bf2065d86aaa91f6e5d4ca142798d8e8d03edc5a4a00600260008373ffffffffffffffffffffffffffffffffffffffff1673ffffffffffffffffffffffffffffffffffffffff16815260200190815260200160002060010160405161015c9190610c32565b60405180910390a150565b60008054906101000a900473ffffffffffffffffffffffffffffffffffffffff1673ffffffffffffffffffffffffffffffffffffffff163373ffffffffffffffffffffffffffffffffffffffff16146101f5576040517f08c379a00000000000000000000000000000000000000000000000000000000081526004016101ec90610cb1565b60405180910390fd5b6000600260008473ffffffffffffffffffffffffffffffffffffffff1673ffffffffffffffffffffffffffffffffffffffff168152602001908152602001600020600001805461024490610a3c565b905014610286576040517f08c379a000000000000000000000000000000000000000000000000000000000815260040161027d90610d43565b60405180910390fd5b80600260008473ffffffffffffffffffffffffffffffffffffffff1673ffffffffffffffffffffffffffffffffffffffff16815260200190815260200160002060000190805190602001906102dc9291906105af565b507f08e51fe4815297917128fa893659743d8634168b341c5e8e6d4c0c5a81394bcc8160405161030c9190610dda565b60405180910390a15050565b60008054906101000a900473ffffffffffffffffffffffffffffffffffffffff1681565b60008054906101000a900473ffffffffffffffffffffffffffffffffffffffff1673ffffffffffffffffffffffffffffffffffffffff163373ffffffffffffffffffffffffffffffffffffffff16146103ca576040517f08c379a00000000000000000000000000000000000000000000000000000000081526004016103c190610cb1565b60405180910390fd5b6000600260008573ffffffffffffffffffffffffffffffffffffffff1673ffffffffffffffffffffffffffffffffffffffff168152602001908152602001600020600001805461041990610a3c565b90501161045b576040517f08c379a000000000000000000000000000000000000000000000000000000000815260040161045290610e6e565b60405180910390fd5b60006040518060400160405280848152602001838152509050600260008573ffffffffffffffffffffffffffffffffffffffff1673ffffffffffffffffffffffffffffffffffffffff16815260200190815260200160002060010181908060018154018082558091505060019003906000526020600020906002020160009091909190915060008201518160000190805190602001906104fc9291906105af565b506020820151816001015550507f5115c96efdf6d18732cb7d6340f8d69c0d0f4f2c14e9b01b435a1190ce443c3d600260008673ffffffffffffffffffffffffffffffffffffffff1673ffffffffffffffffffffffffffffffffffffffff1681526020019081526020016000206000018460405161057b929190610f0e565b60405180910390a150505050565b600160009054906101000a900473ffffffffffffffffffffffffffffffffffffffff1681565b8280546105bb90610a3c565b90600052602060002090601f0160209004810192826105dd5760008555610624565b82601f106105f657805160ff1916838001178555610624565b82800160010185558215610624579182015b82811115610623578251825591602001919060010190610608565b5b5090506106319190610635565b5090565b5b8082111561064e576000816000905550600101610636565b5090565b6000604051905090565b600080fd5b600080fd5b600073ffffffffffffffffffffffffffffffffffffffff82169050919050565b600061069182610666565b9050919050565b6106a181610686565b81146106ac57600080fd5b50565b6000813590506106be81610698565b92915050565b6000602082840312156106da576106d961065c565b5b60006106e8848285016106af565b91505092915050565b600080fd5b600080fd5b6000601f19601f8301169050919050565b7f4e487b7100000000000000000000000000000000000000000000000000000000600052604160045260246000fd5b610744826106fb565b810181811067ffffffffffffffff821117156107635761076261070c565b5b80604052505050565b6000610776610652565b9050610782828261073b565b919050565b600067ffffffffffffffff8211156107a2576107a161070c565b5b6107ab826106fb565b9050602081019050919050565b82818337600083830152505050565b60006107da6107d584610787565b61076c565b9050828152602081018484840111156107f6576107f56106f6565b5b6108018482856107b8565b509392505050565b600082601f83011261081e5761081d6106f1565b5b813561082e8482602086016107c7565b91505092915050565b6000806040838503121561084e5761084d61065c565b5b600061085c858286016106af565b925050602083013567ffffffffffffffff81111561087d5761087c610661565b5b61088985828601610809565b9150509250929050565b61089c81610686565b82525050565b60006020820190506108b76000830184610893565b92915050565b6000819050919050565b6108d0816108bd565b81146108db57600080fd5b50565b6000813590506108ed816108c7565b92915050565b60008060006060848603121561090c5761090b61065c565b5b600061091a868287016106af565b935050602084013567ffffffffffffffff81111561093b5761093a610661565b5b61094786828701610809565b9250506040610958868287016108de565b9150509250925092565b6000819050919050565b600061098761098261097d84610666565b610962565b610666565b9050919050565b60006109998261096c565b9050919050565b60006109ab8261098e565b9050919050565b6109bb816109a0565b82525050565b60006020820190506109d660008301846109b2565b92915050565b600081549050919050565b600082825260208201905092915050565b60008190508160005260206000209050919050565b7f4e487b7100000000000000000000000000000000000000000000000000000000600052602260045260246000fd5b60006002820490506001821680610a5457607f821691505b60208210811415610a6857610a67610a0d565b5b50919050565b600082825260208201905092915050565b60008190508160005260206000209050919050565b60008154610aa181610a3c565b610aab8186610a6e565b94506001821660008114610ac65760018114610ad857610b0b565b60ff1983168652602086019350610b0b565b610ae185610a7f565b60005b83811015610b0357815481890152600182019150602081019050610ae4565b808801955050505b50505092915050565b60008160001c9050919050565b6000819050919050565b6000610b3e610b3983610b14565b610b21565b9050919050565b610b4e816108bd565b82525050565b60006040830160008084018583036000870152610b718382610a94565b92505060018401549050610b8481610b2b565b610b916020870182610b45565b50819250505092915050565b6000610ba98383610b54565b905092915050565b6000600282019050919050565b6000610bc9826109dc565b610bd381856109e7565b935083602082028501610be5856109f8565b8060005b85811015610c2057848403895281610c018582610b9d565b9450610c0c83610bb1565b925060208a01995050600181019050610be9565b50829750879550505050505092915050565b60006020820190508181036000830152610c4c8184610bbe565b905092915050565b600082825260208201905092915050565b7f4e6f7420746865204f776e657200000000000000000000000000000000000000600082015250565b6000610c9b600d83610c54565b9150610ca682610c65565b602082019050919050565b60006020820190508181036000830152610cca81610c8e565b9050919050565b7f54686973206d7573696369616e20686173206265656e20616c7265616479206360008201527f7265617465640000000000000000000000000000000000000000000000000000602082015250565b6000610d2d602683610c54565b9150610d3882610cd1565b604082019050919050565b60006020820190508181036000830152610d5c81610d20565b9050919050565b600081519050919050565b60005b83811015610d8c578082015181840152602081019050610d71565b83811115610d9b576000848401525b50505050565b6000610dac82610d63565b610db68185610c54565b9350610dc6818560208601610d6e565b610dcf816106fb565b840191505092915050565b60006020820190508181036000830152610df48184610da1565b905092915050565b7f5468697320747261636b20686173206265656e20616c7265616479206372656160008201527f7465640000000000000000000000000000000000000000000000000000000000602082015250565b6000610e58602383610c54565b9150610e6382610dfc565b604082019050919050565b60006020820190508181036000830152610e8781610e4b565b9050919050565b60008154610e9b81610a3c565b610ea58186610c54565b94506001821660008114610ec05760018114610ed257610f05565b60ff1983168652602086019350610f05565b610edb85610a7f565b60005b83811015610efd57815481890152600182019150602081019050610ede565b808801955050505b50505092915050565b60006040820190508181036000830152610f288185610e8e565b90508181036020830152610f3c8184610da1565b9050939250505056fea2646970667358221220713d544c855ffc3efc6d99877426dfb7a00b83879325f313dca847c4a05ae8bb64736f6c63430008090033608060405234801561001057600080fd5b50336000806101000a81548173ffffffffffffffffffffffffffffffffffffffff021916908373ffffffffffffffffffffffffffffffffffffffff16021790555060f78061005f6000396000f3fe6080604052348015600f57600080fd5b506004361060285760003560e01c80638da5cb5b14602d575b600080fd5b60336047565b604051603e919060a8565b60405180910390f35b60008054906101000a900473ffffffffffffffffffffffffffffffffffffffff1681565b600073ffffffffffffffffffffffffffffffffffffffff82169050919050565b6000609482606b565b9050919050565b60a281608b565b82525050565b600060208201905060bb6000830184609b565b9291505056fea26469706673582212201c8563eb4d213f8983a84181f989942b97c0952c8796ac17b6892b6ef056988364736f6c63430008090033",
  "immutableReferences": {},
  "source": "// SPDX-License-Identifier: MIT\npragma solidity ^0.8.9;\n\nimport \"./SecurityManager.sol\";\n\ncontract MusicianManager is SecurityManager{\n\n  SecurityManager public securityManager;\n\n  constructor() {\n    securityManager = new SecurityManager();\n  }\n\n  event musicianCreated(string _artistName);\n  event trackAdded(string _artistName, string _title);\n  event getTheTracks(Track[] _tracks);\n\n  struct Track {\n    string _title;\n    uint _duration;\n  }\n  \n  struct Musician {\n    string _artistName;\n    Track[] _tracks;\n  }\n\n  mapping (address => Musician) Musicians;  \n\n  function addMusician(address _musicianAddress, string memory _artistName) external onlyOwner {\n    require(bytes(Musicians[_musicianAddress]._artistName).length == 0, 'This musician has been already created');\n    Musicians[_musicianAddress]._artistName = _artistName;\n    emit musicianCreated(_artistName);\n  }\n\n  function addTrack(address _musicianAddress, string memory _title, uint _duration) external onlyOwner {\n    require(bytes(Musicians[_musicianAddress]._artistName).length > 0, 'This track has been already created');\n    Track memory thisTrack = Track(_title, _duration);\n    Musicians[_musicianAddress]._tracks.push(thisTrack);\n    emit trackAdded(Musicians[_musicianAddress]._artistName, _title);\n  }\n\n  function getTracks(address _musicianAddress) external {\n    emit getTheTracks(Musicians[_musicianAddress]._tracks);\n  }\n\n}\n",
  "sourcePath": "/home/philou/Dev/DevTruffle/LabelContractWithTruffle/contracts/MusicianManager.sol",
  "compiler": {
    "name": "solc",
    "version": "0.8.9+commit.e5eed63a.Emscripten.clang"
  },
  "schemaVersion": "3.4.13",
  "updatedAt": "2023-04-27T09:30:25.131Z",
  "devdoc": {
    "kind": "dev",
    "methods": {},
    "version": 1
  },
  "userdoc": {
    "kind": "user",
    "methods": {},
    "version": 1
  }
}